{
  "contractName": "CounterContract",
  "abi": [
    {
      "constant": true,
      "inputs": [],
      "name": "counter",
      "outputs": [
        {
          "internalType": "uint256",
          "name": "",
          "type": "uint256"
        }
      ],
      "payable": false,
      "stateMutability": "view",
      "type": "function"
    },
    {
      "constant": false,
      "inputs": [],
      "name": "DumbContract",
      "outputs": [],
      "payable": false,
      "stateMutability": "nonpayable",
      "type": "function"
    },
    {
      "constant": true,
      "inputs": [
        {
          "internalType": "uint256",
          "name": "offset",
          "type": "uint256"
        }
      ],
      "name": "counterWithOffset",
      "outputs": [
        {
          "internalType": "uint256",
          "name": "sum",
          "type": "uint256"
        }
      ],
      "payable": false,
      "stateMutability": "view",
      "type": "function"
    },
    {
      "constant": false,
      "inputs": [
        {
          "internalType": "uint256",
          "name": "by",
          "type": "uint256"
        }
      ],
      "name": "countup",
      "outputs": [],
      "payable": false,
      "stateMutability": "nonpayable",
      "type": "function"
    }
  ],
  "bytecode": "0x608060405234801561001057600080fd5b5061014d806100206000396000f3fe608060405234801561001057600080fd5b506004361061004c5760003560e01c806361bc221a146100515780637916df081461006f5780638e0952991461009d578063a4a678bf146100df575b600080fd5b6100596100e9565b6040518082815260200191505060405180910390f35b61009b6004803603602081101561008557600080fd5b81019080803590602001909291905050506100ef565b005b6100c9600480360360208110156100b357600080fd5b8101908080359060200190929190505050610101565b6040518082815260200191505060405180910390f35b6100e761010f565b005b60005481565b80600080828254019250508190555050565b600081600054019050919050565b6000808190555056fea265627a7a723158209044a77b834bc582ce090c69bf41aebd23478384ba7b59646a182118a3a1066664736f6c63430005100032",
  "source": "pragma solidity ^0.5.0;\n\ncontract CounterContract {\n  uint public counter; \n   \n  function DumbContract() public {\n    counter = 0;\n  }  \n  function counterWithOffset(uint offset) public view returns (uint sum) {\n    return counter + offset;\n  }  \n  function countup(uint by) public {\n    counter += by;\n  }\n}",
  "sourcePath": "/Users/brianzhao/projects/ETC-Reference-Letter/contracts/CounterContract.sol",
  "compiler": {
    "name": "solc",
    "version": "0.5.16+commit.9c3226ce.Emscripten.clang"
  },
  "schemaVersion": "3.0.23",
  "updatedAt": "2020-04-20T18:22:59.829Z",
  "devdoc": {
    "methods": {}
  },
  "userdoc": {
    "methods": {}
  }
}